{
  "contractName": "CryptoCoders",
  "abi": [
    {
      "inputs": [],
      "stateMutability": "nonpayable",
      "type": "constructor"
    },
    {
      "anonymous": false,
      "inputs": [
        {
          "indexed": true,
          "internalType": "address",
          "name": "owner",
          "type": "address"
        },
        {
          "indexed": true,
          "internalType": "address",
          "name": "approved",
          "type": "address"
        },
        {
          "indexed": true,
          "internalType": "uint256",
          "name": "tokenId",
          "type": "uint256"
        }
      ],
      "name": "Approval",
      "type": "event"
    },
    {
      "anonymous": false,
      "inputs": [
        {
          "indexed": true,
          "internalType": "address",
          "name": "owner",
          "type": "address"
        },
        {
          "indexed": true,
          "internalType": "address",
          "name": "operator",
          "type": "address"
        },
        {
          "indexed": false,
          "internalType": "bool",
          "name": "approved",
          "type": "bool"
        }
      ],
      "name": "ApprovalForAll",
      "type": "event"
    },
    {
      "anonymous": false,
      "inputs": [
        {
          "indexed": true,
          "internalType": "address",
          "name": "from",
          "type": "address"
        },
        {
          "indexed": true,
          "internalType": "address",
          "name": "to",
          "type": "address"
        },
        {
          "indexed": true,
          "internalType": "uint256",
          "name": "tokenId",
          "type": "uint256"
        }
      ],
      "name": "Transfer",
      "type": "event"
    },
    {
      "inputs": [
        {
          "internalType": "uint256",
          "name": "",
          "type": "uint256"
        }
      ],
      "name": "allCryptoCoders",
      "outputs": [
        {
          "internalType": "uint256",
          "name": "tokenId",
          "type": "uint256"
        },
        {
          "internalType": "string",
          "name": "tokenName",
          "type": "string"
        },
        {
          "internalType": "address payable",
          "name": "mintedBy",
          "type": "address"
        },
        {
          "internalType": "address payable",
          "name": "currentOwner",
          "type": "address"
        },
        {
          "internalType": "address payable",
          "name": "previousOwner",
          "type": "address"
        },
        {
          "internalType": "uint256",
          "name": "price",
          "type": "uint256"
        },
        {
          "internalType": "uint256",
          "name": "numberOfTransfers",
          "type": "uint256"
        },
        {
          "internalType": "bool",
          "name": "forSale",
          "type": "bool"
        }
      ],
      "stateMutability": "view",
      "type": "function"
    },
    {
      "inputs": [
        {
          "internalType": "address",
          "name": "to",
          "type": "address"
        },
        {
          "internalType": "uint256",
          "name": "tokenId",
          "type": "uint256"
        }
      ],
      "name": "approve",
      "outputs": [],
      "stateMutability": "nonpayable",
      "type": "function"
    },
    {
      "inputs": [
        {
          "internalType": "address",
          "name": "owner",
          "type": "address"
        }
      ],
      "name": "balanceOf",
      "outputs": [
        {
          "internalType": "uint256",
          "name": "",
          "type": "uint256"
        }
      ],
      "stateMutability": "view",
      "type": "function"
    },
    {
      "inputs": [
        {
          "internalType": "uint256",
          "name": "",
          "type": "uint256"
        }
      ],
      "name": "coders",
      "outputs": [
        {
          "internalType": "string",
          "name": "",
          "type": "string"
        }
      ],
      "stateMutability": "view",
      "type": "function"
    },
    {
      "inputs": [],
      "name": "cryptoCoderCounter",
      "outputs": [
        {
          "internalType": "uint256",
          "name": "",
          "type": "uint256"
        }
      ],
      "stateMutability": "view",
      "type": "function"
    },
    {
      "inputs": [
        {
          "internalType": "uint256",
          "name": "tokenId",
          "type": "uint256"
        }
      ],
      "name": "getApproved",
      "outputs": [
        {
          "internalType": "address",
          "name": "",
          "type": "address"
        }
      ],
      "stateMutability": "view",
      "type": "function"
    },
    {
      "inputs": [
        {
          "internalType": "address",
          "name": "owner",
          "type": "address"
        },
        {
          "internalType": "address",
          "name": "operator",
          "type": "address"
        }
      ],
      "name": "isApprovedForAll",
      "outputs": [
        {
          "internalType": "bool",
          "name": "",
          "type": "bool"
        }
      ],
      "stateMutability": "view",
      "type": "function"
    },
    {
      "inputs": [],
      "name": "name",
      "outputs": [
        {
          "internalType": "string",
          "name": "",
          "type": "string"
        }
      ],
      "stateMutability": "view",
      "type": "function"
    },
    {
      "inputs": [
        {
          "internalType": "uint256",
          "name": "tokenId",
          "type": "uint256"
        }
      ],
      "name": "ownerOf",
      "outputs": [
        {
          "internalType": "address",
          "name": "",
          "type": "address"
        }
      ],
      "stateMutability": "view",
      "type": "function"
    },
    {
      "inputs": [
        {
          "internalType": "address",
          "name": "from",
          "type": "address"
        },
        {
          "internalType": "address",
          "name": "to",
          "type": "address"
        },
        {
          "internalType": "uint256",
          "name": "tokenId",
          "type": "uint256"
        }
      ],
      "name": "safeTransferFrom",
      "outputs": [],
      "stateMutability": "nonpayable",
      "type": "function"
    },
    {
      "inputs": [
        {
          "internalType": "address",
          "name": "from",
          "type": "address"
        },
        {
          "internalType": "address",
          "name": "to",
          "type": "address"
        },
        {
          "internalType": "uint256",
          "name": "tokenId",
          "type": "uint256"
        },
        {
          "internalType": "bytes",
          "name": "_data",
          "type": "bytes"
        }
      ],
      "name": "safeTransferFrom",
      "outputs": [],
      "stateMutability": "nonpayable",
      "type": "function"
    },
    {
      "inputs": [
        {
          "internalType": "address",
          "name": "operator",
          "type": "address"
        },
        {
          "internalType": "bool",
          "name": "approved",
          "type": "bool"
        }
      ],
      "name": "setApprovalForAll",
      "outputs": [],
      "stateMutability": "nonpayable",
      "type": "function"
    },
    {
      "inputs": [],
      "name": "symbol",
      "outputs": [
        {
          "internalType": "string",
          "name": "",
          "type": "string"
        }
      ],
      "stateMutability": "view",
      "type": "function"
    },
    {
      "inputs": [
        {
          "internalType": "uint256",
          "name": "index",
          "type": "uint256"
        }
      ],
      "name": "tokenByIndex",
      "outputs": [
        {
          "internalType": "uint256",
          "name": "",
          "type": "uint256"
        }
      ],
      "stateMutability": "view",
      "type": "function"
    },
    {
      "inputs": [
        {
          "internalType": "address",
          "name": "owner",
          "type": "address"
        },
        {
          "internalType": "uint256",
          "name": "index",
          "type": "uint256"
        }
      ],
      "name": "tokenOfOwnerByIndex",
      "outputs": [
        {
          "internalType": "uint256",
          "name": "",
          "type": "uint256"
        }
      ],
      "stateMutability": "view",
      "type": "function"
    },
    {
      "inputs": [
        {
          "internalType": "uint256",
          "name": "tokenId",
          "type": "uint256"
        }
      ],
      "name": "tokenURI",
      "outputs": [
        {
          "internalType": "string",
          "name": "",
          "type": "string"
        }
      ],
      "stateMutability": "view",
      "type": "function"
    },
    {
      "inputs": [],
      "name": "totalSupply",
      "outputs": [
        {
          "internalType": "uint256",
          "name": "",
          "type": "uint256"
        }
      ],
      "stateMutability": "view",
      "type": "function"
    },
    {
      "inputs": [
        {
          "internalType": "address",
          "name": "from",
          "type": "address"
        },
        {
          "internalType": "address",
          "name": "to",
          "type": "address"
        },
        {
          "internalType": "uint256",
          "name": "tokenId",
          "type": "uint256"
        }
      ],
      "name": "transferFrom",
      "outputs": [],
      "stateMutability": "nonpayable",
      "type": "function"
    },
    {
      "inputs": [
        {
          "internalType": "string",
          "name": "coder",
          "type": "string"
        },
        {
          "internalType": "uint256",
          "name": "_price",
          "type": "uint256"
        }
      ],
      "name": "mint",
      "outputs": [],
      "stateMutability": "nonpayable",
      "type": "function"
    },
    {
      "inputs": [],
      "name": "getNumberOfTokensMinted",
      "outputs": [
        {
          "internalType": "uint256",
          "name": "",
          "type": "uint256"
        }
      ],
      "stateMutability": "view",
      "type": "function"
    },
    {
      "inputs": [
        {
          "internalType": "address",
          "name": "_owner",
          "type": "address"
        }
      ],
      "name": "getTotalNumberOfTokensOwnedByAnAddress",
      "outputs": [
        {
          "internalType": "uint256",
          "name": "",
          "type": "uint256"
        }
      ],
      "stateMutability": "view",
      "type": "function"
    },
    {
      "inputs": [
        {
          "internalType": "uint256",
          "name": "_tokenId",
          "type": "uint256"
        }
      ],
      "name": "getTokenExists",
      "outputs": [
        {
          "internalType": "bool",
          "name": "",
          "type": "bool"
        }
      ],
      "stateMutability": "view",
      "type": "function"
    },
    {
      "inputs": [
        {
          "internalType": "uint256",
          "name": "_tokenId",
          "type": "uint256"
        }
      ],
      "name": "buyToken",
      "outputs": [],
      "stateMutability": "payable",
      "type": "function"
    },
    {
      "inputs": [
        {
          "internalType": "uint256",
          "name": "_tokenId",
          "type": "uint256"
        }
      ],
      "name": "toggleForSale",
      "outputs": [],
      "stateMutability": "nonpayable",
      "type": "function"
    },
    {
      "inputs": [
        {
          "internalType": "bytes4",
          "name": "interfaceId",
          "type": "bytes4"
        }
      ],
      "name": "supportsInterface",
      "outputs": [
        {
          "internalType": "bool",
          "name": "",
          "type": "bool"
        }
      ],
      "stateMutability": "view",
      "type": "function"
    }
  ],
  "bytecode": "0x60806040523480156200001157600080fd5b506040518060400160405280600c81526020017f43727970746f436f6465727300000000000000000000000000000000000000008152506040518060400160405280600381526020017f4e46540000000000000000000000000000000000000000000000000000000000815250816000908051906020019062000096929190620000b8565b508060019080519060200190620000af929190620000b8565b505050620001cd565b828054620000c69062000197565b90600052602060002090601f016020900481019282620000ea576000855562000136565b82601f106200010557805160ff191683800117855562000136565b8280016001018555821562000136579182015b828111156200013557825182559160200191906001019062000118565b5b50905062000145919062000149565b5090565b5b80821115620001645760008160009055506001016200014a565b5090565b7f4e487b7100000000000000000000000000000000000000000000000000000000600052602260045260246000fd5b60006002820490506001821680620001b057607f821691505b60208210811415620001c757620001c662000168565b5b50919050565b6141ac80620001dd6000396000f3fe6080604052600436106101665760003560e01c80634cfa16f9116100d1578063a22cb4651161008a578063c24f26cb11610064578063c24f26cb14610577578063c87b56dd146105bb578063cc151f3a146105f8578063e985e9c51461062357610166565b8063a22cb465146104fc578063a32018b914610525578063b88d4fde1461054e57610166565b80634cfa16f9146103b25780634f6ccce7146103ef5780636352211e1461042c57806370a082311461046957806378a81e78146104a657806395d89b41146104d157610166565b806318160ddd1161012357806318160ddd1461029f57806323b872dd146102ca5780632d296bf1146102f35780632f745c591461030f57806342842e0e1461034c578063439028501461037557610166565b806301ffc9a71461016b578063056b01ce146101a857806306fdde03146101d1578063081812fc146101fc578063095ea7b314610239578063142687f314610262575b600080fd5b34801561017757600080fd5b50610192600480360381019061018d9190612e22565b610660565b60405161019f9190612e6a565b60405180910390f35b3480156101b457600080fd5b506101cf60048036038101906101ca9190613001565b610672565b005b3480156101dd57600080fd5b506101e661091f565b6040516101f391906130e5565b60405180910390f35b34801561020857600080fd5b50610223600480360381019061021e9190613107565b6109b1565b6040516102309190613175565b60405180910390f35b34801561024557600080fd5b50610260600480360381019061025b91906131bc565b610a36565b005b34801561026e57600080fd5b5061028960048036038101906102849190613107565b610b4e565b6040516102969190612e6a565b60405180910390f35b3480156102ab57600080fd5b506102b4610b65565b6040516102c1919061320b565b60405180910390f35b3480156102d657600080fd5b506102f160048036038101906102ec9190613226565b610b72565b005b61030d60048036038101906103089190613107565b610bd2565b005b34801561031b57600080fd5b50610336600480360381019061033191906131bc565b6110e3565b604051610343919061320b565b60405180910390f35b34801561035857600080fd5b50610373600480360381019061036e9190613226565b611188565b005b34801561038157600080fd5b5061039c60048036038101906103979190613279565b6111a8565b6040516103a9919061320b565b60405180910390f35b3480156103be57600080fd5b506103d960048036038101906103d49190613107565b6111bf565b6040516103e691906130e5565b60405180910390f35b3480156103fb57600080fd5b5061041660048036038101906104119190613107565b61126b565b604051610423919061320b565b60405180910390f35b34801561043857600080fd5b50610453600480360381019061044e9190613107565b6112dc565b6040516104609190613175565b60405180910390f35b34801561047557600080fd5b50610490600480360381019061048b9190613279565b61138e565b60405161049d919061320b565b60405180910390f35b3480156104b257600080fd5b506104bb611446565b6040516104c8919061320b565b60405180910390f35b3480156104dd57600080fd5b506104e661144c565b6040516104f391906130e5565b60405180910390f35b34801561050857600080fd5b50610523600480360381019061051e91906132d2565b6114de565b005b34801561053157600080fd5b5061054c60048036038101906105479190613107565b6114f4565b005b34801561055a57600080fd5b50610575600480360381019061057091906133b3565b6118f3565b005b34801561058357600080fd5b5061059e60048036038101906105999190613107565b611955565b6040516105b2989796959493929190613457565b60405180910390f35b3480156105c757600080fd5b506105e260048036038101906105dd9190613107565b611a92565b6040516105ef91906130e5565b60405180910390f35b34801561060457600080fd5b5061060d611b39565b60405161061a919061320b565b60405180910390f35b34801561062f57600080fd5b5061064a600480360381019061064591906134dc565b611b4d565b6040516106579190612e6a565b60405180910390f35b600061066b82611be1565b9050919050565b600b826040516106829190613558565b908152602001604051809103902060009054906101000a900460ff16156106a857600080fd5b600a829080600181540180825580915050600190039060005260206000200160009091909190915090805190602001906106e3929190612d13565b506000600a805490509050600c60008154809291906107019061359e565b919050555061071233600c54611c5b565b6001600b846040516107249190613558565b908152602001604051809103902060006101000a81548160ff0219169083151502179055506000604051806101000160405280600c5481526020018581526020013373ffffffffffffffffffffffffffffffffffffffff1681526020013373ffffffffffffffffffffffffffffffffffffffff168152602001600073ffffffffffffffffffffffffffffffffffffffff1681526020018481526020016000815260200160011515815250905080600d6000600c54815260200190815260200160002060008201518160000155602082015181600101908051906020019061080c929190612d13565b5060408201518160020160006101000a81548173ffffffffffffffffffffffffffffffffffffffff021916908373ffffffffffffffffffffffffffffffffffffffff16021790555060608201518160030160006101000a81548173ffffffffffffffffffffffffffffffffffffffff021916908373ffffffffffffffffffffffffffffffffffffffff16021790555060808201518160040160006101000a81548173ffffffffffffffffffffffffffffffffffffffff021916908373ffffffffffffffffffffffffffffffffffffffff16021790555060a0820151816005015560c0820151816006015560e08201518160070160006101000a81548160ff02191690831515021790555090505050505050565b60606000805461092e90613616565b80601f016020809104026020016040519081016040528092919081815260200182805461095a90613616565b80156109a75780601f1061097c576101008083540402835291602001916109a7565b820191906000526020600020905b81548152906001019060200180831161098a57829003601f168201915b5050505050905090565b60006109bc82611e35565b6109fb576040517f08c379a00000000000000000000000000000000000000000000000000000000081526004016109f2906136ba565b60405180910390fd5b6004600083815260200190815260200160002060009054906101000a900473ffffffffffffffffffffffffffffffffffffffff169050919050565b6000610a41826112dc565b90508073ffffffffffffffffffffffffffffffffffffffff168373ffffffffffffffffffffffffffffffffffffffff161415610ab2576040517f08c379a0000000000000000000000000000000000000000000000000000000008152600401610aa99061374c565b60405180910390fd5b8073ffffffffffffffffffffffffffffffffffffffff16610ad1611ea1565b73ffffffffffffffffffffffffffffffffffffffff161480610b005750610aff81610afa611ea1565b611b4d565b5b610b3f576040517f08c379a0000000000000000000000000000000000000000000000000000000008152600401610b36906137de565b60405180910390fd5b610b498383611ea9565b505050565b600080610b5a83611e35565b905080915050919050565b6000600880549050905090565b610b83610b7d611ea1565b82611f62565b610bc2576040517f08c379a0000000000000000000000000000000000000000000000000000000008152600401610bb990613870565b60405180910390fd5b610bcd838383612040565b505050565b600073ffffffffffffffffffffffffffffffffffffffff163373ffffffffffffffffffffffffffffffffffffffff161415610c0c57600080fd5b610c1581611e35565b610c1e57600080fd5b6000610c29826112dc565b9050600073ffffffffffffffffffffffffffffffffffffffff168173ffffffffffffffffffffffffffffffffffffffff161415610c6557600080fd5b3373ffffffffffffffffffffffffffffffffffffffff168173ffffffffffffffffffffffffffffffffffffffff161415610c9e57600080fd5b6000600d60008481526020019081526020016000206040518061010001604052908160008201548152602001600182018054610cd990613616565b80601f0160208091040260200160405190810160405280929190818152602001828054610d0590613616565b8015610d525780601f10610d2757610100808354040283529160200191610d52565b820191906000526020600020905b815481529060010190602001808311610d3557829003601f168201915b505050505081526020016002820160009054906101000a900473ffffffffffffffffffffffffffffffffffffffff1673ffffffffffffffffffffffffffffffffffffffff1673ffffffffffffffffffffffffffffffffffffffff1681526020016003820160009054906101000a900473ffffffffffffffffffffffffffffffffffffffff1673ffffffffffffffffffffffffffffffffffffffff1673ffffffffffffffffffffffffffffffffffffffff1681526020016004820160009054906101000a900473ffffffffffffffffffffffffffffffffffffffff1673ffffffffffffffffffffffffffffffffffffffff1673ffffffffffffffffffffffffffffffffffffffff16815260200160058201548152602001600682015481526020016007820160009054906101000a900460ff16151515158152505090508060a00151341015610e9f57600080fd5b8060e00151610ead57600080fd5b610eb8823385612040565b6000816060015190508073ffffffffffffffffffffffffffffffffffffffff166108fc349081150290604051600060405180830381858888f19350505050158015610f07573d6000803e3d6000fd5b508160600151826080019073ffffffffffffffffffffffffffffffffffffffff16908173ffffffffffffffffffffffffffffffffffffffff168152505033826060019073ffffffffffffffffffffffffffffffffffffffff16908173ffffffffffffffffffffffffffffffffffffffff168152505060018260c001818151610f8f9190613890565b9150818152505081600d6000868152602001908152602001600020600082015181600001556020820151816001019080519060200190610fd0929190612d13565b5060408201518160020160006101000a81548173ffffffffffffffffffffffffffffffffffffffff021916908373ffffffffffffffffffffffffffffffffffffffff16021790555060608201518160030160006101000a81548173ffffffffffffffffffffffffffffffffffffffff021916908373ffffffffffffffffffffffffffffffffffffffff16021790555060808201518160040160006101000a81548173ffffffffffffffffffffffffffffffffffffffff021916908373ffffffffffffffffffffffffffffffffffffffff16021790555060a0820151816005015560c0820151816006015560e08201518160070160006101000a81548160ff02191690831515021790555090505050505050565b60006110ee8361138e565b821061112f576040517f08c379a000000000000000000000000000000000000000000000000000000000815260040161112690613958565b60405180910390fd5b600660008473ffffffffffffffffffffffffffffffffffffffff1673ffffffffffffffffffffffffffffffffffffffff168152602001908152602001600020600083815260200190815260200160002054905092915050565b6111a3838383604051806020016040528060008152506118f3565b505050565b6000806111b48361138e565b905080915050919050565b600a81815481106111cf57600080fd5b9060005260206000200160009150905080546111ea90613616565b80601f016020809104026020016040519081016040528092919081815260200182805461121690613616565b80156112635780601f1061123857610100808354040283529160200191611263565b820191906000526020600020905b81548152906001019060200180831161124657829003601f168201915b505050505081565b6000611275610b65565b82106112b6576040517f08c379a00000000000000000000000000000000000000000000000000000000081526004016112ad906139ea565b60405180910390fd5b600882815481106112ca576112c9613a0a565b5b90600052602060002001549050919050565b6000806002600084815260200190815260200160002060009054906101000a900473ffffffffffffffffffffffffffffffffffffffff169050600073ffffffffffffffffffffffffffffffffffffffff168173ffffffffffffffffffffffffffffffffffffffff161415611385576040517f08c379a000000000000000000000000000000000000000000000000000000000815260040161137c90613aab565b60405180910390fd5b80915050919050565b60008073ffffffffffffffffffffffffffffffffffffffff168273ffffffffffffffffffffffffffffffffffffffff1614156113ff576040517f08c379a00000000000000000000000000000000000000000000000000000000081526004016113f690613b3d565b60405180910390fd5b600360008373ffffffffffffffffffffffffffffffffffffffff1673ffffffffffffffffffffffffffffffffffffffff168152602001908152602001600020549050919050565b600c5481565b60606001805461145b90613616565b80601f016020809104026020016040519081016040528092919081815260200182805461148790613616565b80156114d45780601f106114a9576101008083540402835291602001916114d4565b820191906000526020600020905b8154815290600101906020018083116114b757829003601f168201915b5050505050905090565b6114f06114e9611ea1565b83836122a7565b5050565b600073ffffffffffffffffffffffffffffffffffffffff163373ffffffffffffffffffffffffffffffffffffffff16141561152e57600080fd5b61153781611e35565b61154057600080fd5b600061154b826112dc565b90503373ffffffffffffffffffffffffffffffffffffffff168173ffffffffffffffffffffffffffffffffffffffff161461158557600080fd5b6000600d600084815260200190815260200160002060405180610100016040529081600082015481526020016001820180546115c090613616565b80601f01602080910402602001604051908101604052809291908181526020018280546115ec90613616565b80156116395780601f1061160e57610100808354040283529160200191611639565b820191906000526020600020905b81548152906001019060200180831161161c57829003601f168201915b505050505081526020016002820160009054906101000a900473ffffffffffffffffffffffffffffffffffffffff1673ffffffffffffffffffffffffffffffffffffffff1673ffffffffffffffffffffffffffffffffffffffff1681526020016003820160009054906101000a900473ffffffffffffffffffffffffffffffffffffffff1673ffffffffffffffffffffffffffffffffffffffff1673ffffffffffffffffffffffffffffffffffffffff1681526020016004820160009054906101000a900473ffffffffffffffffffffffffffffffffffffffff1673ffffffffffffffffffffffffffffffffffffffff1673ffffffffffffffffffffffffffffffffffffffff16815260200160058201548152602001600682015481526020016007820160009054906101000a900460ff16151515158152505090508060e00151156117955760008160e00190151590811515815250506117a7565b60018160e00190151590811515815250505b80600d60008581526020019081526020016000206000820151816000015560208201518160010190805190602001906117e1929190612d13565b5060408201518160020160006101000a81548173ffffffffffffffffffffffffffffffffffffffff021916908373ffffffffffffffffffffffffffffffffffffffff16021790555060608201518160030160006101000a81548173ffffffffffffffffffffffffffffffffffffffff021916908373ffffffffffffffffffffffffffffffffffffffff16021790555060808201518160040160006101000a81548173ffffffffffffffffffffffffffffffffffffffff021916908373ffffffffffffffffffffffffffffffffffffffff16021790555060a0820151816005015560c0820151816006015560e08201518160070160006101000a81548160ff021916908315150217905550905050505050565b6119046118fe611ea1565b83611f62565b611943576040517f08c379a000000000000000000000000000000000000000000000000000000000815260040161193a90613870565b60405180910390fd5b61194f84848484612414565b50505050565b600d60205280600052604060002060009150905080600001549080600101805461197e90613616565b80601f01602080910402602001604051908101604052809291908181526020018280546119aa90613616565b80156119f75780601f106119cc576101008083540402835291602001916119f7565b820191906000526020600020905b8154815290600101906020018083116119da57829003601f168201915b5050505050908060020160009054906101000a900473ffffffffffffffffffffffffffffffffffffffff16908060030160009054906101000a900473ffffffffffffffffffffffffffffffffffffffff16908060040160009054906101000a900473ffffffffffffffffffffffffffffffffffffffff16908060050154908060060154908060070160009054906101000a900460ff16905088565b6060611a9d82611e35565b611adc576040517f08c379a0000000000000000000000000000000000000000000000000000000008152600401611ad390613bcf565b60405180910390fd5b6000611ae6612470565b90506000815111611b065760405180602001604052806000815250611b31565b80611b1084612487565b604051602001611b21929190613bef565b6040516020818303038152906040525b915050919050565b600080611b44610b65565b90508091505090565b6000600560008473ffffffffffffffffffffffffffffffffffffffff1673ffffffffffffffffffffffffffffffffffffffff16815260200190815260200160002060008373ffffffffffffffffffffffffffffffffffffffff1673ffffffffffffffffffffffffffffffffffffffff16815260200190815260200160002060009054906101000a900460ff16905092915050565b60007f780e9d63000000000000000000000000000000000000000000000000000000007bffffffffffffffffffffffffffffffffffffffffffffffffffffffff1916827bffffffffffffffffffffffffffffffffffffffffffffffffffffffff19161480611c545750611c53826125e8565b5b9050919050565b600073ffffffffffffffffffffffffffffffffffffffff168273ffffffffffffffffffffffffffffffffffffffff161415611ccb576040517f08c379a0000000000000000000000000000000000000000000000000000000008152600401611cc290613c5f565b60405180910390fd5b611cd481611e35565b15611d14576040517f08c379a0000000000000000000000000000000000000000000000000000000008152600401611d0b90613ccb565b60405180910390fd5b611d20600083836126ca565b6001600360008473ffffffffffffffffffffffffffffffffffffffff1673ffffffffffffffffffffffffffffffffffffffff1681526020019081526020016000206000828254611d709190613890565b92505081905550816002600083815260200190815260200160002060006101000a81548173ffffffffffffffffffffffffffffffffffffffff021916908373ffffffffffffffffffffffffffffffffffffffff160217905550808273ffffffffffffffffffffffffffffffffffffffff16600073ffffffffffffffffffffffffffffffffffffffff167fddf252ad1be2c89b69c2b068fc378daa952ba7f163c4a11628f55a4df523b3ef60405160405180910390a4611e31600083836126da565b5050565b60008073ffffffffffffffffffffffffffffffffffffffff166002600084815260200190815260200160002060009054906101000a900473ffffffffffffffffffffffffffffffffffffffff1673ffffffffffffffffffffffffffffffffffffffff1614159050919050565b600033905090565b816004600083815260200190815260200160002060006101000a81548173ffffffffffffffffffffffffffffffffffffffff021916908373ffffffffffffffffffffffffffffffffffffffff160217905550808273ffffffffffffffffffffffffffffffffffffffff16611f1c836112dc565b73ffffffffffffffffffffffffffffffffffffffff167f8c5be1e5ebec7d5bd14f71427d1e84f3dd0314c0f7b2291e5b200ac8c7c3b92560405160405180910390a45050565b6000611f6d82611e35565b611fac576040517f08c379a0000000000000000000000000000000000000000000000000000000008152600401611fa390613d5d565b60405180910390fd5b6000611fb7836112dc565b90508073ffffffffffffffffffffffffffffffffffffffff168473ffffffffffffffffffffffffffffffffffffffff161480611ff95750611ff88185611b4d565b5b8061203757508373ffffffffffffffffffffffffffffffffffffffff1661201f846109b1565b73ffffffffffffffffffffffffffffffffffffffff16145b91505092915050565b8273ffffffffffffffffffffffffffffffffffffffff16612060826112dc565b73ffffffffffffffffffffffffffffffffffffffff16146120b6576040517f08c379a00000000000000000000000000000000000000000000000000000000081526004016120ad90613def565b60405180910390fd5b600073ffffffffffffffffffffffffffffffffffffffff168273ffffffffffffffffffffffffffffffffffffffff161415612126576040517f08c379a000000000000000000000000000000000000000000000000000000000815260040161211d90613e81565b60405180910390fd5b6121318383836126ca565b61213c600082611ea9565b6001600360008573ffffffffffffffffffffffffffffffffffffffff1673ffffffffffffffffffffffffffffffffffffffff168152602001908152602001600020600082825461218c9190613ea1565b925050819055506001600360008473ffffffffffffffffffffffffffffffffffffffff1673ffffffffffffffffffffffffffffffffffffffff16815260200190815260200160002060008282546121e39190613890565b92505081905550816002600083815260200190815260200160002060006101000a81548173ffffffffffffffffffffffffffffffffffffffff021916908373ffffffffffffffffffffffffffffffffffffffff160217905550808273ffffffffffffffffffffffffffffffffffffffff168473ffffffffffffffffffffffffffffffffffffffff167fddf252ad1be2c89b69c2b068fc378daa952ba7f163c4a11628f55a4df523b3ef60405160405180910390a46122a28383836126da565b505050565b8173ffffffffffffffffffffffffffffffffffffffff168373ffffffffffffffffffffffffffffffffffffffff161415612316576040517f08c379a000000000000000000000000000000000000000000000000000000000815260040161230d90613f21565b60405180910390fd5b80600560008573ffffffffffffffffffffffffffffffffffffffff1673ffffffffffffffffffffffffffffffffffffffff16815260200190815260200160002060008473ffffffffffffffffffffffffffffffffffffffff1673ffffffffffffffffffffffffffffffffffffffff16815260200190815260200160002060006101000a81548160ff0219169083151502179055508173ffffffffffffffffffffffffffffffffffffffff168373ffffffffffffffffffffffffffffffffffffffff167f17307eab39ab6107e8899845ad3d59bd9653f200f220920489ca2b5937696c31836040516124079190612e6a565b60405180910390a3505050565b61241f848484612040565b61242b848484846126df565b61246a576040517f08c379a000000000000000000000000000000000000000000000000000000000815260040161246190613fb3565b60405180910390fd5b50505050565b606060405180602001604052806000815250905090565b606060008214156124cf576040518060400160405280600181526020017f300000000000000000000000000000000000000000000000000000000000000081525090506125e3565b600082905060005b600082146125015780806124ea9061359e565b915050600a826124fa9190614002565b91506124d7565b60008167ffffffffffffffff81111561251d5761251c612ea0565b5b6040519080825280601f01601f19166020018201604052801561254f5781602001600182028036833780820191505090505b5090505b600085146125dc576001826125689190613ea1565b9150600a856125779190614033565b60306125839190613890565b60f81b81838151811061259957612598613a0a565b5b60200101907effffffffffffffffffffffffffffffffffffffffffffffffffffffffffffff1916908160001a905350600a856125d59190614002565b9450612553565b8093505050505b919050565b60007f80ac58cd000000000000000000000000000000000000000000000000000000007bffffffffffffffffffffffffffffffffffffffffffffffffffffffff1916827bffffffffffffffffffffffffffffffffffffffffffffffffffffffff191614806126b357507f5b5e139f000000000000000000000000000000000000000000000000000000007bffffffffffffffffffffffffffffffffffffffffffffffffffffffff1916827bffffffffffffffffffffffffffffffffffffffffffffffffffffffff1916145b806126c357506126c282612867565b5b9050919050565b6126d58383836128d1565b505050565b505050565b60006127008473ffffffffffffffffffffffffffffffffffffffff166129e5565b1561285a578373ffffffffffffffffffffffffffffffffffffffff1663150b7a02612729611ea1565b8786866040518563ffffffff1660e01b815260040161274b94939291906140b9565b6020604051808303816000875af192505050801561278757506040513d601f19601f82011682018060405250810190612784919061411a565b60015b61280a573d80600081146127b7576040519150601f19603f3d011682016040523d82523d6000602084013e6127bc565b606091505b50600081511415612802576040517f08c379a00000000000000000000000000000000000000000000000000000000081526004016127f990613fb3565b60405180910390fd5b805181602001fd5b63150b7a0260e01b7bffffffffffffffffffffffffffffffffffffffffffffffffffffffff1916817bffffffffffffffffffffffffffffffffffffffffffffffffffffffff19161491505061285f565b600190505b949350505050565b60007f01ffc9a7000000000000000000000000000000000000000000000000000000007bffffffffffffffffffffffffffffffffffffffffffffffffffffffff1916827bffffffffffffffffffffffffffffffffffffffffffffffffffffffff1916149050919050565b6128dc838383612a08565b600073ffffffffffffffffffffffffffffffffffffffff168373ffffffffffffffffffffffffffffffffffffffff16141561291f5761291a81612a0d565b61295e565b8173ffffffffffffffffffffffffffffffffffffffff168373ffffffffffffffffffffffffffffffffffffffff161461295d5761295c8382612a56565b5b5b600073ffffffffffffffffffffffffffffffffffffffff168273ffffffffffffffffffffffffffffffffffffffff1614156129a15761299c81612bc3565b6129e0565b8273ffffffffffffffffffffffffffffffffffffffff168273ffffffffffffffffffffffffffffffffffffffff16146129df576129de8282612c94565b5b5b505050565b6000808273ffffffffffffffffffffffffffffffffffffffff163b119050919050565b505050565b6008805490506009600083815260200190815260200160002081905550600881908060018154018082558091505060019003906000526020600020016000909190919091505550565b60006001612a638461138e565b612a6d9190613ea1565b9050600060076000848152602001908152602001600020549050818114612b52576000600660008673ffffffffffffffffffffffffffffffffffffffff1673ffffffffffffffffffffffffffffffffffffffff168152602001908152602001600020600084815260200190815260200160002054905080600660008773ffffffffffffffffffffffffffffffffffffffff1673ffffffffffffffffffffffffffffffffffffffff168152602001908152602001600020600084815260200190815260200160002081905550816007600083815260200190815260200160002081905550505b6007600084815260200190815260200160002060009055600660008573ffffffffffffffffffffffffffffffffffffffff1673ffffffffffffffffffffffffffffffffffffffff16815260200190815260200160002060008381526020019081526020016000206000905550505050565b60006001600880549050612bd79190613ea1565b9050600060096000848152602001908152602001600020549050600060088381548110612c0757612c06613a0a565b5b906000526020600020015490508060088381548110612c2957612c28613a0a565b5b906000526020600020018190555081600960008381526020019081526020016000208190555060096000858152602001908152602001600020600090556008805480612c7857612c77614147565b5b6001900381819060005260206000200160009055905550505050565b6000612c9f8361138e565b905081600660008573ffffffffffffffffffffffffffffffffffffffff1673ffffffffffffffffffffffffffffffffffffffff168152602001908152602001600020600083815260200190815260200160002081905550806007600084815260200190815260200160002081905550505050565b828054612d1f90613616565b90600052602060002090601f016020900481019282612d415760008555612d88565b82601f10612d5a57805160ff1916838001178555612d88565b82800160010185558215612d88579182015b82811115612d87578251825591602001919060010190612d6c565b5b509050612d959190612d99565b5090565b5b80821115612db2576000816000905550600101612d9a565b5090565b6000604051905090565b600080fd5b600080fd5b60007fffffffff0000000000000000000000000000000000000000000000000000000082169050919050565b612dff81612dca565b8114612e0a57600080fd5b50565b600081359050612e1c81612df6565b92915050565b600060208284031215612e3857612e37612dc0565b5b6000612e4684828501612e0d565b91505092915050565b60008115159050919050565b612e6481612e4f565b82525050565b6000602082019050612e7f6000830184612e5b565b92915050565b600080fd5b600080fd5b6000601f19601f8301169050919050565b7f4e487b7100000000000000000000000000000000000000000000000000000000600052604160045260246000fd5b612ed882612e8f565b810181811067ffffffffffffffff82111715612ef757612ef6612ea0565b5b80604052505050565b6000612f0a612db6565b9050612f168282612ecf565b919050565b600067ffffffffffffffff821115612f3657612f35612ea0565b5b612f3f82612e8f565b9050602081019050919050565b82818337600083830152505050565b6000612f6e612f6984612f1b565b612f00565b905082815260208101848484011115612f8a57612f89612e8a565b5b612f95848285612f4c565b509392505050565b600082601f830112612fb257612fb1612e85565b5b8135612fc2848260208601612f5b565b91505092915050565b6000819050919050565b612fde81612fcb565b8114612fe957600080fd5b50565b600081359050612ffb81612fd5565b92915050565b6000806040838503121561301857613017612dc0565b5b600083013567ffffffffffffffff81111561303657613035612dc5565b5b61304285828601612f9d565b925050602061305385828601612fec565b9150509250929050565b600081519050919050565b600082825260208201905092915050565b60005b8381101561309757808201518184015260208101905061307c565b838111156130a6576000848401525b50505050565b60006130b78261305d565b6130c18185613068565b93506130d1818560208601613079565b6130da81612e8f565b840191505092915050565b600060208201905081810360008301526130ff81846130ac565b905092915050565b60006020828403121561311d5761311c612dc0565b5b600061312b84828501612fec565b91505092915050565b600073ffffffffffffffffffffffffffffffffffffffff82169050919050565b600061315f82613134565b9050919050565b61316f81613154565b82525050565b600060208201905061318a6000830184613166565b92915050565b61319981613154565b81146131a457600080fd5b50565b6000813590506131b681613190565b92915050565b600080604083850312156131d3576131d2612dc0565b5b60006131e1858286016131a7565b92505060206131f285828601612fec565b9150509250929050565b61320581612fcb565b82525050565b600060208201905061322060008301846131fc565b92915050565b60008060006060848603121561323f5761323e612dc0565b5b600061324d868287016131a7565b935050602061325e868287016131a7565b925050604061326f86828701612fec565b9150509250925092565b60006020828403121561328f5761328e612dc0565b5b600061329d848285016131a7565b91505092915050565b6132af81612e4f565b81146132ba57600080fd5b50565b6000813590506132cc816132a6565b92915050565b600080604083850312156132e9576132e8612dc0565b5b60006132f7858286016131a7565b9250506020613308858286016132bd565b9150509250929050565b600067ffffffffffffffff82111561332d5761332c612ea0565b5b61333682612e8f565b9050602081019050919050565b600061335661335184613312565b612f00565b90508281526020810184848401111561337257613371612e8a565b5b61337d848285612f4c565b509392505050565b600082601f83011261339a57613399612e85565b5b81356133aa848260208601613343565b91505092915050565b600080600080608085870312156133cd576133cc612dc0565b5b60006133db878288016131a7565b94505060206133ec878288016131a7565b93505060406133fd87828801612fec565b925050606085013567ffffffffffffffff81111561341e5761341d612dc5565b5b61342a87828801613385565b91505092959194509250565b600061344182613134565b9050919050565b61345181613436565b82525050565b60006101008201905061346d600083018b6131fc565b818103602083015261347f818a6130ac565b905061348e6040830189613448565b61349b6060830188613448565b6134a86080830187613448565b6134b560a08301866131fc565b6134c260c08301856131fc565b6134cf60e0830184612e5b565b9998505050505050505050565b600080604083850312156134f3576134f2612dc0565b5b6000613501858286016131a7565b9250506020613512858286016131a7565b9150509250929050565b600081905092915050565b60006135328261305d565b61353c818561351c565b935061354c818560208601613079565b80840191505092915050565b60006135648284613527565b915081905092915050565b7f4e487b7100000000000000000000000000000000000000000000000000000000600052601160045260246000fd5b60006135a982612fcb565b91507fffffffffffffffffffffffffffffffffffffffffffffffffffffffffffffffff8214156135dc576135db61356f565b5b600182019050919050565b7f4e487b7100000000000000000000000000000000000000000000000000000000600052602260045260246000fd5b6000600282049050600182168061362e57607f821691505b60208210811415613642576136416135e7565b5b50919050565b7f4552433732313a20617070726f76656420717565727920666f72206e6f6e657860008201527f697374656e7420746f6b656e0000000000000000000000000000000000000000602082015250565b60006136a4602c83613068565b91506136af82613648565b604082019050919050565b600060208201905081810360008301526136d381613697565b9050919050565b7f4552433732313a20617070726f76616c20746f2063757272656e74206f776e6560008201527f7200000000000000000000000000000000000000000000000000000000000000602082015250565b6000613736602183613068565b9150613741826136da565b604082019050919050565b6000602082019050818103600083015261376581613729565b9050919050565b7f4552433732313a20617070726f76652063616c6c6572206973206e6f74206f7760008201527f6e6572206e6f7220617070726f76656420666f7220616c6c0000000000000000602082015250565b60006137c8603883613068565b91506137d38261376c565b604082019050919050565b600060208201905081810360008301526137f7816137bb565b9050919050565b7f4552433732313a207472616e736665722063616c6c6572206973206e6f74206f60008201527f776e6572206e6f7220617070726f766564000000000000000000000000000000602082015250565b600061385a603183613068565b9150613865826137fe565b604082019050919050565b600060208201905081810360008301526138898161384d565b9050919050565b600061389b82612fcb565b91506138a683612fcb565b9250827fffffffffffffffffffffffffffffffffffffffffffffffffffffffffffffffff038211156138db576138da61356f565b5b828201905092915050565b7f455243373231456e756d657261626c653a206f776e657220696e646578206f7560008201527f74206f6620626f756e6473000000000000000000000000000000000000000000602082015250565b6000613942602b83613068565b915061394d826138e6565b604082019050919050565b6000602082019050818103600083015261397181613935565b9050919050565b7f455243373231456e756d657261626c653a20676c6f62616c20696e646578206f60008201527f7574206f6620626f756e64730000000000000000000000000000000000000000602082015250565b60006139d4602c83613068565b91506139df82613978565b604082019050919050565b60006020820190508181036000830152613a03816139c7565b9050919050565b7f4e487b7100000000000000000000000000000000000000000000000000000000600052603260045260246000fd5b7f4552433732313a206f776e657220717565727920666f72206e6f6e657869737460008201527f656e7420746f6b656e0000000000000000000000000000000000000000000000602082015250565b6000613a95602983613068565b9150613aa082613a39565b604082019050919050565b60006020820190508181036000830152613ac481613a88565b9050919050565b7f4552433732313a2062616c616e636520717565727920666f7220746865207a6560008201527f726f206164647265737300000000000000000000000000000000000000000000602082015250565b6000613b27602a83613068565b9150613b3282613acb565b604082019050919050565b60006020820190508181036000830152613b5681613b1a565b9050919050565b7f4552433732314d657461646174613a2055524920717565727920666f72206e6f60008201527f6e6578697374656e7420746f6b656e0000000000000000000000000000000000602082015250565b6000613bb9602f83613068565b9150613bc482613b5d565b604082019050919050565b60006020820190508181036000830152613be881613bac565b9050919050565b6000613bfb8285613527565b9150613c078284613527565b91508190509392505050565b7f4552433732313a206d696e7420746f20746865207a65726f2061646472657373600082015250565b6000613c49602083613068565b9150613c5482613c13565b602082019050919050565b60006020820190508181036000830152613c7881613c3c565b9050919050565b7f4552433732313a20746f6b656e20616c7265616479206d696e74656400000000600082015250565b6000613cb5601c83613068565b9150613cc082613c7f565b602082019050919050565b60006020820190508181036000830152613ce481613ca8565b9050919050565b7f4552433732313a206f70657261746f7220717565727920666f72206e6f6e657860008201527f697374656e7420746f6b656e0000000000000000000000000000000000000000602082015250565b6000613d47602c83613068565b9150613d5282613ceb565b604082019050919050565b60006020820190508181036000830152613d7681613d3a565b9050919050565b7f4552433732313a207472616e736665722066726f6d20696e636f72726563742060008201527f6f776e6572000000000000000000000000000000000000000000000000000000602082015250565b6000613dd9602583613068565b9150613de482613d7d565b604082019050919050565b60006020820190508181036000830152613e0881613dcc565b9050919050565b7f4552433732313a207472616e7366657220746f20746865207a65726f2061646460008201527f7265737300000000000000000000000000000000000000000000000000000000602082015250565b6000613e6b602483613068565b9150613e7682613e0f565b604082019050919050565b60006020820190508181036000830152613e9a81613e5e565b9050919050565b6000613eac82612fcb565b9150613eb783612fcb565b925082821015613eca57613ec961356f565b5b828203905092915050565b7f4552433732313a20617070726f766520746f2063616c6c657200000000000000600082015250565b6000613f0b601983613068565b9150613f1682613ed5565b602082019050919050565b60006020820190508181036000830152613f3a81613efe565b9050919050565b7f4552433732313a207472616e7366657220746f206e6f6e20455243373231526560008201527f63656976657220696d706c656d656e7465720000000000000000000000000000602082015250565b6000613f9d603283613068565b9150613fa882613f41565b604082019050919050565b60006020820190508181036000830152613fcc81613f90565b9050919050565b7f4e487b7100000000000000000000000000000000000000000000000000000000600052601260045260246000fd5b600061400d82612fcb565b915061401883612fcb565b92508261402857614027613fd3565b5b828204905092915050565b600061403e82612fcb565b915061404983612fcb565b92508261405957614058613fd3565b5b828206905092915050565b600081519050919050565b600082825260208201905092915050565b600061408b82614064565b614095818561406f565b93506140a5818560208601613079565b6140ae81612e8f565b840191505092915050565b60006080820190506140ce6000830187613166565b6140db6020830186613166565b6140e860408301856131fc565b81810360608301526140fa8184614080565b905095945050505050565b60008151905061411481612df6565b92915050565b6000602082840312156141305761412f612dc0565b5b600061413e84828501614105565b91505092915050565b7f4e487b7100000000000000000000000000000000000000000000000000000000600052603160045260246000fdfea2646970667358221220be37dac0402ae4954bba3ee4525651769624344c8d9942e92deb96d88e26a71764736f6c634300080b0033",
  "immutableReferences": {},
  "source": "// SPDX-License-Identifier: MIT\r\npragma solidity ^0.8.0;\r\n\r\n\r\nimport \"../client/node_modules/@openzeppelin/contracts/token/ERC721/ERC721.sol\";\r\nimport \"../client/node_modules/@openzeppelin/contracts/token/ERC721/extensions/ERC721Enumerable.sol\";\r\n\r\n\r\n\r\ncontract CryptoCoders is ERC721, ERC721Enumerable{\r\n\r\n    string [] public coders;\r\n\r\n    mapping(string => bool) _coderExist;\r\n    uint256 public cryptoCoderCounter;\r\n    \r\n\r\n    struct CryptoCoder {\r\n    uint256 tokenId;\r\n    string tokenName;\r\n    address payable mintedBy;\r\n    address payable currentOwner;\r\n    address payable previousOwner;\r\n    uint256 price;\r\n    uint256 numberOfTransfers;\r\n    bool forSale;\r\n  }\r\n\r\n   mapping(uint256 => CryptoCoder) public allCryptoCoders;\r\n\r\n\r\n\r\n\r\n    constructor() ERC721(\"CryptoCoders\",\"NFT\"){\r\n\r\n    }\r\n\r\n    function mint(string memory coder, uint256 _price) public {\r\n\r\n        require(!_coderExist[coder]);\r\n        coders.push(coder);\r\n        uint _id=coders.length;\r\n        cryptoCoderCounter++;\r\n\r\n        _mint(msg.sender, cryptoCoderCounter);\r\n        _coderExist[coder]=true;\r\n        \r\n\r\n    CryptoCoder memory newCryptoCoder = CryptoCoder(\r\n    cryptoCoderCounter,\r\n    coder,\r\n    payable(msg.sender),\r\n    payable(msg.sender),\r\n    payable(address(0)),\r\n    _price,\r\n    0,\r\n    true);\r\n\r\n    // add the token id and it's crypto boy to all crypto boys mapping\r\n     allCryptoCoders[cryptoCoderCounter] = newCryptoCoder;\r\n\r\n   }\r\n\r\n\r\n // get total number of tokens minted so far\r\n  function getNumberOfTokensMinted() public view returns(uint256) {\r\n    uint256 totalNumberOfTokensMinted = totalSupply();\r\n    return totalNumberOfTokensMinted;\r\n  }\r\n\r\n  // get total number of tokens owned by an address\r\n  function getTotalNumberOfTokensOwnedByAnAddress(address _owner) public view returns(uint256) {\r\n    uint256 totalNumberOfTokensOwned = balanceOf(_owner);\r\n    return totalNumberOfTokensOwned;\r\n  }\r\n\r\n   // check if the token already exists\r\n  function getTokenExists(uint256 _tokenId) public view returns(bool) {\r\n    bool tokenExists = _exists(_tokenId);\r\n    return tokenExists;\r\n  }\r\n\r\n\r\n   // by a token by passing in the token's id\r\n  function buyToken(uint256 _tokenId) public payable {\r\n    // check if the function caller is not an zero account address\r\n    require(msg.sender != address(0));\r\n    // check if the token id of the token being bought exists or not\r\n    require(_exists(_tokenId));\r\n    // get the token's owner\r\n    address tokenOwner = ownerOf(_tokenId);\r\n    // token's owner should not be an zero address account\r\n    require(tokenOwner != address(0));\r\n    // the one who wants to buy the token should not be the token's owner\r\n    require(tokenOwner != msg.sender);\r\n    // get that token from all crypto boys mapping and create a memory of it defined as (struct => CryptoBoy)\r\n    CryptoCoder memory cryptoCoder = allCryptoCoders[_tokenId];\r\n    // price sent in to buy should be equal to or more than the token's price\r\n    require(msg.value >= cryptoCoder.price);\r\n    // token should be for sale\r\n    require(cryptoCoder.forSale);\r\n\r\n    // transfer the token from owner to the caller of the function (buyer)\r\n    _transfer(tokenOwner, msg.sender, _tokenId);\r\n    // get owner of the token\r\n    address payable sendTo = cryptoCoder.currentOwner;\r\n    // send token's worth of ethers to the owner\r\n    sendTo.transfer(msg.value);\r\n    // update the token's previous owner\r\n    cryptoCoder.previousOwner = cryptoCoder.currentOwner;\r\n    // update the token's current owner\r\n   cryptoCoder.currentOwner = payable(msg.sender);\r\n    // update the how many times this token was transfered\r\n   cryptoCoder.numberOfTransfers += 1;\r\n    // set and update that token in the mapping\r\n    allCryptoCoders[_tokenId] = cryptoCoder;\r\n  }\r\n\r\n   // switch between set for sale and set not for sale\r\n  function toggleForSale(uint256 _tokenId) public {\r\n\r\n    // require caller of the function is not an empty address\r\n\r\n    require(msg.sender != address(0));\r\n    // require that token should exist\r\n\r\n    require(_exists(_tokenId));\r\n    // get the token's owner\r\n    address tokenOwner = ownerOf(_tokenId);\r\n    // check that token's owner should be equal to the caller of the function\r\n\r\n    require(tokenOwner == msg.sender);\r\n    // get that token from all crypto boys mapping and create a memory of it defined as (struct => CryptoBoy)\r\n    CryptoCoder memory cryptoCoder = allCryptoCoders[_tokenId];\r\n    // if token's forSale is false make it true and vice versa\r\n    if(cryptoCoder.forSale) {\r\n      cryptoCoder.forSale = false;\r\n    } else {\r\n      cryptoCoder.forSale = true;\r\n    }\r\n    // set and update that token in the mapping\r\n    allCryptoCoders[_tokenId] = cryptoCoder;\r\n\r\n  }\r\n\r\n   function _beforeTokenTransfer(address from, address to, uint256 tokenId)\r\n        internal\r\n        override(ERC721, ERC721Enumerable)\r\n    {\r\n        super._beforeTokenTransfer(from, to, tokenId);\r\n    }\r\n\r\n    function supportsInterface(bytes4 interfaceId) public view\r\n        override(ERC721, ERC721Enumerable)\r\n        returns (bool)\r\n    {\r\n        return super.supportsInterface(interfaceId);\r\n    }\r\n\r\n\r\n\r\n}\r\n\r\n",
  "sourcePath": "F:\\CryptoCoder\\contracts\\CryptoCoders.sol",
  "compiler": {
    "name": "solc",
    "version": "0.8.11+commit.d7f03943.Emscripten.clang"
  },
  "schemaVersion": "3.4.7",
  "updatedAt": "2022-06-01T09:38:38.419Z",
  "devdoc": {
    "kind": "dev",
    "methods": {
      "approve(address,uint256)": {
        "details": "See {IERC721-approve}."
      },
      "balanceOf(address)": {
        "details": "See {IERC721-balanceOf}."
      },
      "getApproved(uint256)": {
        "details": "See {IERC721-getApproved}."
      },
      "isApprovedForAll(address,address)": {
        "details": "See {IERC721-isApprovedForAll}."
      },
      "name()": {
        "details": "See {IERC721Metadata-name}."
      },
      "ownerOf(uint256)": {
        "details": "See {IERC721-ownerOf}."
      },
      "safeTransferFrom(address,address,uint256)": {
        "details": "See {IERC721-safeTransferFrom}."
      },
      "safeTransferFrom(address,address,uint256,bytes)": {
        "details": "See {IERC721-safeTransferFrom}."
      },
      "setApprovalForAll(address,bool)": {
        "details": "See {IERC721-setApprovalForAll}."
      },
      "symbol()": {
        "details": "See {IERC721Metadata-symbol}."
      },
      "tokenByIndex(uint256)": {
        "details": "See {IERC721Enumerable-tokenByIndex}."
      },
      "tokenOfOwnerByIndex(address,uint256)": {
        "details": "See {IERC721Enumerable-tokenOfOwnerByIndex}."
      },
      "tokenURI(uint256)": {
        "details": "See {IERC721Metadata-tokenURI}."
      },
      "totalSupply()": {
        "details": "See {IERC721Enumerable-totalSupply}."
      },
      "transferFrom(address,address,uint256)": {
        "details": "See {IERC721-transferFrom}."
      }
    },
    "version": 1
  },
  "userdoc": {
    "kind": "user",
    "methods": {},
    "version": 1
  }
}